{"abi":[{"type":"constructor","inputs":[{"name":"_entryPoint","type":"address","internalType":"contract IEntryPoint"}],"stateMutability":"nonpayable"},{"type":"function","name":"createAccount","inputs":[{"name":"","type":"address","internalType":"address"},{"name":"salt","type":"uint256","internalType":"uint256"}],"outputs":[{"name":"ret","type":"address","internalType":"contract SimpleAccount"}],"stateMutability":"nonpayable"},{"type":"function","name":"entryPoint","inputs":[],"outputs":[{"name":"","type":"address","internalType":"contract IEntryPoint"}],"stateMutability":"view"},{"type":"function","name":"getAddress","inputs":[{"name":"accountOwner","type":"address","internalType":"address"},{"name":"salt","type":"uint256","internalType":"uint256"}],"outputs":[{"name":"","type":"address","internalType":"address"}],"stateMutability":"view"}],"bytecode":{"object":"0x60a060405234801561000f575f80fd5b50604051610ad6380380610ad683398101604081905261002e9161003f565b6001600160a01b031660805261006c565b5f6020828403121561004f575f80fd5b81516001600160a01b0381168114610065575f80fd5b9392505050565b608051610a466100905f395f8181608a0152818160d801526101c00152610a465ff3fe608060405234801561000f575f80fd5b506004361061003f575f3560e01c80635fbfb9cf146100435780638cb84e1814610072578063b0d691fe14610085575b5f80fd5b610056610051366004610295565b6100ac565b6040516001600160a01b03909116815260200160405180910390f35b610056610080366004610295565b610191565b6100567f000000000000000000000000000000000000000000000000000000000000000081565b5f806100b83384610191565b90506001600160a01b0381163b80156100d35750905061018b565b835f1b7f000000000000000000000000000000000000000000000000000000000000000060405161010390610288565b6001600160a01b0390911681526020018190604051809103905ff5905080158015610130573d5f803e3d5ffd5b5060405163189acdbd60e31b81523360048201529093506001600160a01b0384169063c4d66de8906024015f604051808303815f87803b158015610172575f80fd5b505af1158015610184573d5f803e3d5ffd5b5050505050505b92915050565b5f60ff60f81b3083604051806020016101a990610288565b601f1982820381018352601f9091011660408181527f00000000000000000000000000000000000000000000000000000000000000006001600160a01b031660208301520160408051601f198184030181529082905261020c92916020016102f7565b6040516020818303038152906040528051906020012060405160200161026994939291906001600160f81b031994909416845260609290921b6bffffffffffffffffffffffff191660018401526015830152603582015260550190565b60408051601f1981840301815291905280516020909101209392505050565b6106fd8061031483390190565b5f80604083850312156102a6575f80fd5b82356001600160a01b03811681146102bc575f80fd5b946020939093013593505050565b5f81515f5b818110156102e957602081850181015186830152016102cf565b505f93019283525090919050565b5f61030b61030583866102ca565b846102ca565b94935050505056fe60a060405234801561000f575f80fd5b506040516106fd3803806106fd83398101604081905261002e91610051565b6001600160a01b03166080525f80546001600160a01b031916600117905561007e565b5f60208284031215610061575f80fd5b81516001600160a01b0381168114610077575f80fd5b9392505050565b60805161065a6100a35f395f818160cd0152818161013d01526102c9015261065a5ff3fe60806040526004361061004c575f3560e01c80633a871cdd146100575780638da5cb5b14610089578063b0d691fe146100bf578063b61d27f6146100f1578063c4d66de814610112575f80fd5b3661005357005b5f80fd5b348015610062575f80fd5b506100766100713660046104c8565b610131565b6040519081526020015b60405180910390f35b348015610094575f80fd5b505f546100a7906001600160a01b031681565b6040516001600160a01b039091168152602001610080565b3480156100ca575f80fd5b507f00000000000000000000000000000000000000000000000000000000000000006100a7565b3480156100fc575f80fd5b5061011061010b366004610532565b6102be565b005b34801561011d575f80fd5b5061011061012c3660046105b2565b61039e565b5f336001600160a01b037f000000000000000000000000000000000000000000000000000000000000000016146101a15760405162461bcd60e51b815260206004820152600f60248201526e1bdb9b1e48115b9d1c9e541bda5b9d608a1b60448201526064015b60405180910390fd5b5f6101f8846040517f19457468657265756d205369676e6564204d6573736167653a0a3332000000006020820152603c81018290525f90605c01604051602081830303815290604052805190602001209050919050565b90506102458161020c6101408801886105cb565b8080601f0160208091040260200160405190810160405280939291908181526020018383808284375f9201919091525061040d92505050565b5f546001600160a01b039081169116146102635760019150506102b7565b82156102b2576040515f90339085908381818185875af1925050503d805f81146102a8576040519150601f19603f3d011682016040523d82523d5f602084013e6102ad565b606091505b505050505b5f9150505b9392505050565b336001600160a01b037f000000000000000000000000000000000000000000000000000000000000000016146103285760405162461bcd60e51b815260206004820152600f60248201526e1bdb9b1e48115b9d1c9e541bda5b9d608a1b6044820152606401610198565b5f80856001600160a01b0316858585604051610345929190610615565b5f6040518083038185875af1925050503d805f811461037f576040519150601f19603f3d011682016040523d82523d5f602084013e610384565b606091505b50915091508161039657805160208201fd5b505050505050565b5f546001600160a01b0316156103ec5760405162461bcd60e51b8152602060048201526013602482015272185b1c9958591e481a5b9a5d1a585b1a5e9959606a1b6044820152606401610198565b5f80546001600160a01b0319166001600160a01b0392909216919091179055565b5f815160411461041e57505f6104c2565b6020820151604083015160608401515f1a7f7fffffffffffffffffffffffffffffff5d576e7357a4501ddfe92f46681b20a0821115610462575f93505050506104c2565b604080515f81526020810180835288905260ff831691810191909152606081018490526080810183905260019060a0016020604051602081039080840390855afa1580156104b2573d5f803e3d5ffd5b5050506020604051035193505050505b92915050565b5f805f606084860312156104da575f80fd5b833567ffffffffffffffff8111156104f0575f80fd5b84016101608187031215610502575f80fd5b95602085013595506040909401359392505050565b80356001600160a01b038116811461052d575f80fd5b919050565b5f805f8060608587031215610545575f80fd5b61054e85610517565b935060208501359250604085013567ffffffffffffffff80821115610571575f80fd5b818701915087601f830112610584575f80fd5b813581811115610592575f80fd5b8860208285010111156105a3575f80fd5b95989497505060200194505050565b5f602082840312156105c2575f80fd5b6102b782610517565b5f808335601e198436030181126105e0575f80fd5b83018035915067ffffffffffffffff8211156105fa575f80fd5b60200191503681900382131561060e575f80fd5b9250929050565b818382375f910190815291905056fea264697066735822122053f2531bdc092a39d2a7da22ed17782dbcec4c06bf482c846ade0009d108ae4d64736f6c63430008170033a26469706673582212204876a9fa7bee9ead9db28e41a0d0eefd165d49eb7f34f3ecd2f06c13a1dc861a64736f6c63430008170033","linkReferences":{}},"methodIdentifiers":{"createAccount(address,uint256)":"5fbfb9cf","entryPoint()":"b0d691fe","getAddress(address,uint256)":"8cb84e18"},"id":0}